:02000000DB28FB
:0E0006008312031324088A00230882000800D6
:10001400243083120313FD00FD0B0E28000008009A
:10002400710DF80DF90D7408F8027508031C750FAD
:10003400F902F00DF10D0F30FC00710DF80DF90D02
:100044007408701C2B28F8027508031C750FF9023C
:100054003028F80775080318750FF907F00DF10D2E
:10006400FC0B1F2870183C287408F807750803183F
:08007400750FF90700000800F8
:10007C0003208A110A128000840AA30A0319A40A15
:08008C00F003031D3E280800EB
:10009400831203139F01C0309F042009F0007008ED
:1000A40083169F051F179F1783122508F000F00D74
:1000B4007010F00D7010F00D701070089F041F1474
:1000C4000A201F151F1D6828000064281F101E0821
:1000D400F100F00183161E08F0040030F10408005A
:1000E400831203137408003A031D81287508003A2B
:1000F400031D8128FF30F0007F30F100DA288312DD
:100104000313FD01F901F8017108700403190034A7
:1001140071087506FA00FA1BFD09FB01F51F972803
:10012400F409F509F40A0319F50AF11F9E28F009E8
:10013400F109F00A0319F10A71087504FA00FA1BAF
:10014400B32812207B18C628FD1F0034F009F109DA
:10015400F00A0319F10AF809F909F80A0319F90A66
:100164000034F51FC228F11BBE287108F90070087D
:10017400F800F101F001A628F101F001F00A0034C1
:10018400F109F009FB0AA328F80A0319F90A74080B
:100194007802031DA62875087902031DA628F90113
:1001A400F801F00A0319F10AF11FA6280000FF3430
:0201B400080041
:1001B60060218316031388018312880183169F0129
:1001C6008312A5014A2070088312A1007108A200BB
:1001D6006630F4000030F50072207008A100710846
:1001E600A20000307106031DFA2800307006031DB8
:1001F600FE28C030880000302206031D0429013085
:100206002106031D0829F930880000302206031D47
:100216000E2902302106031D1229A4308800003061
:100226002206031D182903302106031D1C29B030A0
:10023600880000302206031D222904302106031DF2
:1002460026299930880000302206031D2C29053006
:100256002106031D30299230880000302206031D36
:10026600362906302106031D3A29823088000030DF
:100276002206031D402907302106031D4429F830B4
:10028600880000302206031D4A2908302106031D76
:100296004E298030880000302206031D542909307B
:0E02A6002106031D582990308800E3285929AD
:1002C00020308400013083120313F0005F30A3005C
:0802D0000130A4003E200800EB
:0202BE000F34FB
:02400E004A2F37
:00000001FF
